:0400000034EF00F0E9
:0E0008004582D9CF03F0DACF04F04CEF26F09A
:100018004580D8CF16F0E8CF17F0E0CF18F0D9CF49
:1000280019F0DACF1AF0A3BCA4AC03D06BEC2BF018
:100038000BD0A3BEA4AE03D0ADEC12F005D0F2BA3B
:10004800F2A402D0C3EC2AF01AC0DAFF19C0D9FF13
:1000580018C0E0FF17C0E8FF16C0D8FF4590100091
:040068002CEF1AF06F
:100800000037332F2B27231F1B17130F0B0703FF53
:10081000FBF7F3EFEBE7E3DFDBD7D3CFCBC7C3BF08
:100820000602070501040003080502050404040488
:03083000020400BF
:100834000101E86F370EE81901E085D3CDEC08F02B
:10084400C8EC08F0DFAE4DD020EE03F0C8EC08F0A1
:10085400800EDF5E20EE03F0C8EC08F0DF5018E1F4
:100864000101E96B420EE925D96EDA6A010EDA223A
:10087400DF6AE92B530EE965F5D7AA0E426F436B85
:10088400560E446F300E456F130E466F0001896B90
:1008940020EE03F0C8EC08F08951DE18D8A4120049
:1008A40020EE02F0C8EC08F0090EDE1808E10101A0
:1008B400E96B96EC08F0070EE965FBD707D0010158
:1008C400E96B96EC08F0030EE965FBD70001892B70
:1008D4000B0E8919D8A41200896BDAEC08F09DEF8D
:1008E40022F07A0E0101E81901E11200CDEC08F0C2
:1008F400C8EC08F0DF500101E86F000120EE05F0BC
:10090400C8EC08F0DF50EB6FEC6B1DD32D0E00012B
:10091400EB19EC11D8A41200AF05D8A41200BB0E39
:10092400C36FAE5139EC20F00001AF6B1200040E1E
:100934000001EB19EC1102E162EF2BF0020EEB194E
:10094400EC1102E162EF2BF01200060E2C1804E009
:10095400040E2C18D8A412000001EB511CEF25F052
:10096400060E2C18D8A412000001EB29EC1103E1A7
:10097400010EBCEF2AF0FE0EEB19EC1103E1000EA0
:10098400BCEF2AF0EBC041F070EC27F009EC2BF03F
:10099400000906E0E6EC08F09AEC28F0E3EF22F018
:1009A4002F801200ECC02CF0E96B070E2C1804E128
:1009B400050E2C6E010EE96FEBC02DF0150E000133
:1009C400881903E1160E886F160C2D5056EC28F08A
:1009D4002C5056E164D0030E2D1809E1020E2E6E40
:1009E400010E7EEC29F0000EFAEC2AF0000C090E40
:1009F4002D18D8A41200040E2E6E040C030E2D180C
:100A04000AE1030E4FDBAEEC27F0040E7EEC29F076
:100A1400D6DBBCEC2AF0020EFAEC2AF0010C030E31
:100A24002D1816E1050E2E6E0101E95103E1E36B69
:100A3400050E02D0E36B070EE26FE2517EEC29F063
:100A4400000EFAEC2AF0000E69EC2BF020EF29F0EE
:100A5400090E2D18D8A41200070E2E6E070C030ED3
:100A64002D180AE1060E1EDBAEEC27F0060E7EEC16
:100A740029F0A5DBBCEC2AF0020EFAEC2AF0010CFA
:100A84002C50010AA8E0030AA6E0010AA4E0070A20
:100A9400B5E0010AC4E0030AD8A41200E0D72D503F
:100AA40003E0040E2D180AE12E6A000EFAEC2AF077
:100AB400000E69EC2BF0000E7EEF29F0020E2D18CB
:100AC400D8A41200010E2E6E010CEBC0A1F000019F
:100AD400A151D8B41200020E446E50EC2BF070EF0A
:100AE40027F0EBC08BF000018B05D8A41200446AF8
:100AF400F4D7EBC08DF000018D51D8A41200446AE4
:100B040070EF27F000019385EBC01EF0040E6AEC31
:100B140020F0040E0001976F040C00019395EBC0C4
:100B24001EF0040E06EF23F00001938BEBC01EF0C1
:100B3400200E6AEF20F00001938DEBC01EF0400EF2
:100B44006AEF20F00001939B939DEBC01EF0200EF2
:100B540006EC23F0EBC01EF0400E06EF23F000017C
:100B64009387EBC01EF0080E6AEC20F0D2D7000188
:100B74009397EBC01EF0080E06EF23F00001938953
:100B8400EBC01EF0100E6AEF20F000019399EBC049
:100B94001EF0100E06EF23F000019383EBC01EF04D
:100BA400020E6AEF20F000019393EBC01EF0020ED8
:100BB40006EF23F000019381EBC01EF0010E6AEFF3
:100BC40020F000019391EBC01EF0010E06EF23F01C
:100BD4000001938FEBC01EF0800E6AEF20F000013D
:100BE400939FEBC01EF0800E06EF23F0020E00016F
:100BF400976F020C010E0001976F010C030E0001A8
:100C0400976F030C050E0001976F050C080E000189
:100C14008819D8A412006F6B706B090E886F090CC9
:100C24000A0E00018819D8A412006F6B706B0D0EA8
:100C3400886F0D0C0C0E00018819F7E01200EBC050
:100C44009EF0170E00018819D8A41200180E886FA0
:100C5400180CEBC09DF0020E00019D1903E0040E78
:100C64009D1903E1ECC0EBF0EC6B190E8819D8A4C4
:100C740012006F6B706B1A0E886F1A0CEBC094F035
:100C840012001E0E0001886F1E0C010E1B6E000167
:100C9400EB5165EC26F070EF27F00001EB51EC11FD
:100CA40005E1000E36EC25F070EF27F0EB05EC11B2
:100CB40002E070EF27F0000E50EC25F070EF27F003
:100CC400020E2E1809E0050E2E1806E0040E2E184A
:100CD40003E0070E2E1803E17FDA72EC29F083DAC1
:100CE400E2EC23F070EF27F0020E2E1809E0050E57
:100CF4002E1806E0040E2E1803E0070E2E1803E14A
:100D04006BDA72EC29F00001EB51EC1128E144504C
:100D14000FE1000E36EC25F070EC27F009EC2BF017
:100D2400000901E13DD650DA9AEC28F0E3EF22F015
:100D3400020E4418D8A41200020E36EC25F070EC12
:100D440027F0100E8865100C09EC2BF0000905E063
:100D54003FDA27EC2BF0C0EF22F02F841200EB05D2
:100D6400EC11D8A4120044500FE1000E50EC25F011
:100D740070EC27F009EC2BF0000901E111D624DA1C
:100D84009AEC28F0E3EF22F0020E4418D8A41200E3
:100D9400020E50EC25F0020EB6EC25F0100E88651C
:100DA400100C09EC2BF00009D8E012DA27EC2BF038
:100DB400C0EF22F01B6A0001EB510F0B65EC26F02B
:100DC400020E1B6E0001EB390F0B65EF26F00BDAF8
:100DD400E2EC23F04450D8A4120070EC27F009ECA4
:100DE4002BF0000901E1DCD5EFD99AEC28F0E3EF10
:100DF40022F02C0404E0020E2C18D8A4120009ECF2
:100E04002BF0000903E0ECD969EF2AF034841200D6
:100E1400C6D9E7C1A6F03CD0110E0001886503D005
:100E24001C0E886505D0240E881902E0F5EF2AF01F
:100E3400030E2E1803E0060E2E1808E1020EFAEC3B
:100E44002AF0010E69EC2BF0F5EF2AF0000EFAEC13
:100E54002AF0000E69EC2BF0F5EF2AF01BEC2BF0D6
:100E6400000907E078EC28F0E80603E1010E1FEC26
:100E74002BF078EC28F0E80605E00101E56B020EA2
:100E8400E46F03D00101E46BE56BE451E8EF25F076
:100E94000101E751C1E0010AD8B41200030AD8B431
:100EA4001200010AD8A41200D9D7EDC0D9FFEEC0B0
:100EB400DAFFDF50D8A41200010E0001AF6F20EE5C
:100EC40001F064D9DF50AE6F20EE02F05FD9DF503D
:100ED400BB6F20EE03F05AD9DF50BC6F20EE04F054
:100EE40055D9DF50AD6FADC0C3F0BB0E71EF21F02B
:100EF40056D90101E7AB1200E6AB03D00001959B84
:100F040012000001958B12004AD90101E7AD07D008
:100F1400E6AD03D00001969D02D00001968D060E29
:100F240000018819D8A41200070E886F070C00016D
:100F340020EE01F02BD9060EDE18D8A41200010E03
:100F4400446E70EF27F00101E851010A01E1DED49B
:100F5400030A02E162EF2BF0010A01E1E8D4070A77
:100F640001E120D5010A01E1B0D5030A01E1B9D5B7
:100F7400010A01E1BED50F0A01E1C4D5010A01E16C
:100F8400CCD5030A01E1EBD5010A01E1F0D5070A4A
:100F940001E1F4D5010A01E1F8D5030A01E1C4D560
:100FA400010A01E1C8D51F0A01E1CCD5010A01E11A
:100FB400F3D5030A01E1F7D5010A01E1FBD5070ADC
:100FC40001E1FFD5010A01E103D6030A01E107D6D5
:100FD400010A01E10BD60F0A01E10CD6010A01E175
:100FE4000DD6030A01E10ED6010AD8B41200070A8D
:100FF400D8B41200010AD8B41200030AD8B41200FB
:10100400010A01E103D63F0A01E10AD6010A01E11E
:1010140016D6030A01E11DD6010A01E12FD6070AFB
:1010240001E13BD6010A01E14BD6030A01E12DD6C9
:10103400010A01E17CD70F0A01E123D6010A01E18B
:1010440053D6030A01E1B6D6010A01E1C0D6070A64
:10105400D8B41200010A01E1CCD6030A01E1D8D6C2
:10106400010AD8B412001F0AD8B41200010AD8B475
:101074001200030A01E119D7010AD8B41200070AC1
:1010840001E136D7010AD8B41200030A01E13CD7C2
:101094000E0A01E165D4010A01E157D4030A01E112
:1010A400C9D512002E6E000120EE03F0ED51D926B1
:1010B400EE51DA22DF500101CE6F000120EE04F080
:1010C400ED51D926EE51DA22DF500101CF6F000134
:1010D40020EE05F0ED51D926EE51DA22DF50010160
:1010E400D06F000120EE06F0ED51D926EE51DA2240
:1010F400DF500101D16F000120EE07F0ED51D92638
:10110400EE51DA22DF500101D26F000120EE08F027
:10111400ED51D926EE51DA22DF500101D36FCE0E04
:101124001B6E010E1C6E1200E9510001ED25EF6FDC
:10113400000EEE21F06F040EEF25D96E000EF021A3
:10114400DA6E8951F16FF26BD890F137F237D8909B
:10115400F137F237D890F137F237420EF36F010EC0
:10116400F46F050EF327000EF423F151F327F25127
:10117400F4230101E9510001F325E16E000EF4218D
:10118400E26EDFCFE7FF0101E92B1200ED51D92612
:10119400EE51DA221200000120EE03F01200EBC03F
:1011A400E6F1ECC0EBF00001EC6BEBC0E7F11200F0
:1011B400420EC36F010EC46F5A0EC56F5A0C030E54
:1011C400746FE80E736F010C010EBF6F4150120073
:1011D400010EBF6F43501200EBC0DFF0E851120064
:1011E4009CC0CAF0F60C236A0001EB511200010105
:1011F400EA6B0201005108E102C2F5F0015155EC1D
:1012040022F00101EA6F03D000519DEC25F0220E7B
:10121400020100191EE0005104E1020E0101EA1965
:1012240018E10201005103E1120E011912E0E9EC88
:101234002AF000090EE0000EBF6F020EC06F8FC0CF
:10124400C1F0C26B9CC0C3F08E510008C46F96EC11
:1012540015F0340E0201001901E08DD27A0E041942
:1012640001E089D2050E1B6E020E1C6E7DEC26F089
:101274000009D8B412000001BF6B010EC06F020157
:101284000B5127EF23F0CDDAC7DA370E1AEF04F04B
:1012940002513AEF2AF0C5DABFDA180E1AEC04F05C
:1012A400C2EF1BF0BEDAB8DA170E1AEC04F0C2EF84
:1012B4001BF0B7DAB1DA190E1AEC04F0C2EF1BF026
:1012C400B0DAAADA1A0E1AEC04F0C2EF1BF0A9DAAB
:1012D400A3DA1B0E1AEC04F0C2EF1BF0A2DA9CDABC
:1012E4001C0E1AEC04F0C2EF1BF0B2DA8FDA080E0F
:1012F4001AEC04F0C2EF1BF080DA090E1AEC04F0C9
:10130400C2EF1BF07ADA0E0E1AEC04F0C2EF1BF0F7
:1013140074DA0F0E1AEC04F0C2EF1BF06EDA100E42
:101324001AEC04F0C2EF1BF093DA70DA0A0E1AEC2E
:1013340004F0C2EF1BF061DA0B0E1AEC04F0C2EFFA
:101344001BF05BDA0C0E1AEC04F0C2EF1BF055DA5A
:101354000D0E1AEC04F0C2EF1BF04FDA110E1AEC6A
:1013640004F0C2EF1BF049DA120E1AEC04F0C2EFDB
:101374001BF043DA130E1AEC04F0C2EF1BF03DDA53
:10138400140E1AEC04F0C2EF1BF037DA150E1AEC47
:1013940004F0C2EF1BF031DA160E1AEC04F0C2EFBF
:1013A4001BF0015101E177D7010A8AE0030A01E148
:1013B40079D7010A8CE0070A91E0010A96E0030A52
:1013C400B3E0010A99E00F0AB6E0010AD2E0030A89
:1013D400D6E0010AB6E0070ABAE0010A93E0030A7C
:1013E4009DE0010A01E165D71F0A92E0010ABBE012
:1013F400030ACBE0010A02E1C2EF1BF0070ACBE0CB
:10140400010AABE0C2EF1BF0F8D9050E1AEF04F0A5
:10141400F4D9060E1AEF04F004DAFED9280E1AEFF6
:1014240004F0EBD9290E1AEF04F0E7D92A0E1AEFCB
:1014340004F0E3D92B0E1AEF04F0DFD92C0E1AEFC7
:1014440004F0DBD92D0E1AEF04F00151D8B41200C8
:10145400010ADAE0030AD8B41200010AD8B412006F
:10146400070AD6E0010AD8E0030ADBE0010ADDE05E
:101474000F0ADFE0010AE1E0030AD8B41200010A0E
:10148400D8B41200070AD8B41200010AD8B4120062
:10149400020AD8A41200D5D7B0D9070E1AEF04F067
:1014A40001C2EDF1CED90251C0D9040E1AEF04F0F5
:1014B400015103E102290CE110D0010507E0020EFD
:1014C400011904E0030E0119D8A41200025105E128
:1014D400A8D9A2D91D0E1AEF04F0A3D99DD91E0EC6
:1014E4001AEF04F0010E1B6E020E1C6EC2EC27F004
:1014F400010E1B6E020E1C6E2FEC27F092D98CD9B4
:101504001F0E1AEF04F0010E1F6E020E206ED7ECB0
:101514002AF087D981D9200E1AEF04F0015123EC67
:101524002BF07FD979D93A0E1AEF04F001C2EBF00F
:1015340000016CD9210E1AEF04F05FD9260E1AEFC0
:1015440004F05BD9240E1AEF04F057D9250E1AEFD4
:1015540004F00D0E021904E00F0E0219D8A41200B3
:101564000C05D8A412000DC2EBF000014FD9230ED4
:101574001AEF04F005C2EBF10101EC6BEB51EC6FD7
:10158400EB6B020106510101EB13CC0E02010A19A7
:1015940007E10B0E0001DF6F020EE06FF9EF18F0A8
:1015A400140E0A1901E11200300E0A190BE10C0E97
:1015B4001B6E020E1C6E540E1D6E5AEC1CF00009BC
:1015C40052E032D0350E0A190EE10D514CE0110EE5
:1015D4000D6149D00D0E1B6E020E1C6E77EC24F0CB
:1015E400FFEC2AF040D0020E0A193DE10B512EE027
:1015F4003AD078EC28F0E80614E136D900EC24F06F
:10160400010E1FEF2BF078EC28F0030A04E078ECCD
:1016140028F0020A06E128D900EC24F0020E1FEF9C
:101624002BF0010ECD6F02D00001CD6B02010A51E7
:1016340000EF24F014D900EC24F0010E20EF17F091
:101644000ED900EC24F0010E98EF17F00C51300A7B
:10165400F1E0010AF5E0600ACCE0030AE5E0010AE2
:10166400D2E0070AE1E0020108510AE0070E286E01
:10167400020E296EEBC12AF008C22BF010EF18F00D
:10168400070E1B6E020E1C6EEBC11DF025EC1BF049
:101694000009D8B41200070E0001BF6F020EC06F1C
:1016A400EBC1C1F0DCEF29F0BCD8B6D8270E1AEF95
:1016B40004F003C2EBF00001A9D8320E1AEF04F0D3
:1016C40002C2EDF1BED80151B0D8220E1AEF04F0D7
:1016D40002C2EDF1B6D80351A8D82E0E1AEF04F0C9
:1016E4008CD82F0E1AEF04F09CD896D8300E1AEF2F
:1016F40004F002C2EDF1A5D8035197D8310E1AEFC8
:1017040004F00151E5E0010AEBE0030AEDE0010A0F
:10171400D8A41200EED7011F021F031F041F01519A
:1017240008E001C2EDF18DD805517FD8330E1AECD3
:1017340004F00201025108E002C2EDF182D8065120
:1017440074D8340E1AEC04F00201035108E003C209
:10175400EDF177D8075169D8350E1AEC04F002017F
:101764000451D8B4120004C2EDF16BD808515DD80D
:10177400360E1AEF04F00051010A01E112D6030AF1
:1017840001E18AD60E0A01E183D5030A01E1D5D627
:10179400170AD8B41200020A01E1DBD6010A01E1FA
:1017A40054D6040A01E1C2D63F0A01E19BD6010ADC
:1017B40001E1A9D6030A01E1DDD6010A01E178D6E7
:1017C400050A01E1BED6010AA6E00E0A01E1BDD672
:1017D400040A01E169D71F0A94E0010A01E160D615
:1017E400070A01E150D50D0A01E163D7030A01E1BB
:1017F40067D77A0A01E192D6120002C2EBF0000127
:10180400EC6B010EED6F020EEE6F1200EC6B010E2D
:10181400ED6F020EEE6F1200010EED6F020EEE6F11
:1018240012000001EC6BEB6B12000101ED13EDC132
:10183400EBF0EEC1ECF0010E0001ED6F020EEE6F65
:1018440012000101EE6BED51EE6FED6B020112001F
:1018540002510F0B00019C6F02C2EBF01200000159
:10186400CD6B02010A511200CD6B02010A51120024
:101874008FD1000E706FC80E6F6F010E45D06F517F
:10188400701101E0F2D1000E706F140E6F6F8F8033
:10189400020E3AD06F51701101E0E7D18F8684ECCB
:1018A4002AF0010E706FF40E6F6F030E2DD06F517E
:1018B400701101E0DAD1040E27D0970501E0D5D1EB
:1018C40009EC2BF0000901E1D0D15AEC24F0050E0B
:1018D40000011AD009EC2BF0000901E1C6D10BEC90
:1018E40022F0D8D9060E10D06F51701101E0BDD18D
:1018F400070E0AD009EC2BF0000901E1B6D1C5D9D5
:10190400C1EC26F0080EE4D7886FAFD16F51701187
:1019140001E0ABD1BAD9C1EC26F0A7D109EC2BF088
:10192400000901E1A2D1B1D9E6EC24F00A0ED0D726
:101934006F51701101E099D1A8D9E6EC24F095D14A
:10194400000EFAEC2AF0000E69EC2BF00E0E886FF4
:10195400A1D98BD16F51701105E072EC2AF0000906
:1019640001E083D16F6B706B240E886F876B7DD120
:1019740009EC2BF0000907E09CC0CAF0510E69EC99
:101984002AF0100EA5D7020E8719EEE06ED109ECED
:101994002BF0000901E169D19CC0CAF0520E69EC38
:1019A4002AF0110E95D7000EFAEC2AF0000E69EC1D
:1019B4002BF0120EA9D7B5EC2AF0000901E155D19C
:1019C400130EA2D709EC2BF0000901E14ED170EC03
:1019D40027F042509AEC28F00001C36F43509AEC70
:1019E40028F00001C46F41509AEC28F031EC22F049
:1019F400160E6ED709EC2BF0000901E136D145D95A
:101A0400ABEC26F0150E64D76F51701101E02DD1A7
:101A14003CD9ABEC26F029D109EC2BF0000901E10B
:101A240024D103EC27F0170E5DD06F51701101E043
:101A34001CD19E6B03EC27F08BD709EC2BF000092B
:101A440001E113D1D7EC26F0190E4CD06F5170116F
:101A540001E00BD19E5104E0EDEC26F01B0E38D7CB
:101A64001C0E36D709EC2BF0000907E1FED09CC010
:101A7400CAF0F90E69EC2AF0F3D79D51EBE0010AA4
:101A8400E9E0030AF4E0010AF2E0070AF0E0010ADF
:101A9400EEE0EBD0020E871901E0E7D01D0E65D70A
:101AA4006F51701101E0E1D01F0E12D709EC2BF039
:101AB400000901E1DAD01E0E881905E1F1D869ECBC
:101AC4002AF0200E05D72C500FE0060E2C1804E146
:101AD400E7D869EC2AF0E8D79CC0CAF0ED0E69ECAF
:101AE4002AF0230E000133D72C5007E1020E2D18E3
:101AF40004E1D6D869EC2AF0D7D7D2D869EC2AF019
:101B0400D3D709EC2BF0000901E1AFD0706B960E2E
:101B14006F6F9CC0CAF0540E69EC2AF01F0E0001CE
:101B2400881902E1210EF0D6220EEED66F51701103
:101B340001E09BD0240E886F000EFAEC2AF0000E10
:101B440069EC2BF06F6B706B90D0875101E18DD0F5
:101B5400870501E08AD0706B050E6F6F250E05D7DF
:101B64006F51701101E081D021EEF5F011EEEFF02C
:101B7400050EDBCFE3FFE806FCE2EF0EC36F010EB8
:101B8400C46F060EC56F7BEC2AF00F0E0001EDD674
:101B94000001885101E16DD6010A01E170D6030A02
:101BA40001E178D6010A01E182D6070A01E185D66E
:101BB400010A01E18FD6030A01E196D6010A01E187
:101BC40099D60F0A01E1A2D6010A01E1A7D6030AB8
:101BD40001E1AED6070A01E1B3D6030A01E1BAD6A0
:101BE400010A01E1C5D61F0A01E1D1D6010A01E1CA
:101BF400DAD6030A01E1DFD6010A01E1E3D6070AD6
:101C040001E1F8D6010A01E1FFD6030A01E104D794
:101C1400010A01E10AD70F0A01E10FD7010A01E124
:101C240015D7030A01E11ED7010A01E119D7070AF2
:101C340001E130D7010A01E139D7030A01E136D7BE
:101C4400010A01E15ED73F0A01E15BD7010A01E124
:101C54006DD7030A01E16AD7010A01E121D7070A16
:101C640001E173D7010A01E17BD7030E0001886506
:101C7400030C30EC2AF074EC1BF0A0EC1CF055ECD7
:101C84000EF0D5EC1AF0C9EF20F0030E706FE80ED9
:101C94006F6FE80C030E0001706FE80E6F6FE80CB5
:101CA4009CC0CAF0530C2F50301069E02FA00BD009
:101CB40009EC2BF0000907E02F90E6EC08F09AEC11
:101CC40028F0E3EC22F02FA20CD009EC2BF0000951
:101CD40008E02F92010EBF6F425027EC2BF049EC25
:101CE40021F02FA40BD009EC2BF0000907E02F946E
:101CF400EAEC08F027EC2BF0C0EC22F02FA60BD076
:101D040009EC2BF0000907E02F96D40EC36F010EE7
:101D1400C46F96EC1FF02FA808D009EC2BF0000933
:101D240004E02F98000E6AEC25F02FAA08D009ECE5
:101D34002BF0000904E02F9A010E6AEC25F02FAC79
:101D440008D009EC2BF0000904E02F9C030E6AEC88
:101D540025F02FAE08D009EC2BF0000904E02F9EEB
:101D6400070E6AEC25F030A00AD009EC2BF000092C
:101D740006E030909CC0C3F0020ECBEC24F031504E
:101D8400321001E180D031A208D009EC2BF0000917
:101D940004E0319208D969EC2AF031A008D009ECAA
:101DA4002BF0000904E03190FED869EC2AF031AC44
:101DB40008D009EC2BF0000904E0319CFDD869EC53
:101DC4002AF031AE08D009EC2BF0000904E0319E72
:101DD400F0D869EC2AF032A008D009EC2BF0000905
:101DE40004E03290F2D869EC2AF032A208D009EC6F
:101DF4002BF0000904E03292E5D869EC2AF032A411
:101E04000AD009EC2BF0000906E032949CC0CAF019
:101E1400300E69EC2AF032A60AD009EC2BF0000946
:101E240006E032969CC0CAF0310E69EC2AF032A862
:101E340009D009EC2BF0000905E032981DEC21F0E3
:101E440069EC2AF032AA09D009EC2BF0000905E06C
:101E5400329A1AEC21F069EC2AF032AC0AD009EC7F
:101E64002BF0000906E0329C9CC0CAF00C0E69EC11
:101E74002AF032AE08D009EC2BF0000904E0329EBF
:101E84009ED869EC2AF033503410D8B4120033A031
:101E940008D009EC2BF0000904E0339087D869ECF2
:101EA4002AF033A208D009EC2BF0000904E03392A5
:101EB40092D869EC2AF033A408D009EC2BF000097D
:101EC40004E033946AD869EC2AF033A608D009EC0C
:101ED4002BF0000904E033967BD869EC2AF033A890
:101EE4000AD009EC2BF0000906E033989CC0CAF034
:101EF400E30E69EC2AF033AA0AD009EC2BF00009AE
:101F040006E0339A9CC0CAF0E40E69EC2AF033ACC4
:101F14000AD009EC2BF0000906E0339C9CC0CAF0FF
:101F2400E50E69EC2AF033AE0AD009EC2BF0000977
:101F340006E0339E9CC0CAF0EC0E69EC2AF034A093
:101F44000AD009EC2BF0000906E034909CC0CAF0DA
:101F5400F40E69EC2AF034A20AD009EC2BF0000943
:101F640006E034929CC0CAF0F50E69EC2AF034A461
:101F740009D009EC2BF0000905E03494F2EC08F0E8
:101F840069EC2AF034A6120009EC2BF00009D8B44D
:101F94001200349605D869EF2AF09CC0CAF00B0CE5
:101FA4009CC0CAF0F70C9CC0CAF0E20C9CC0CAF0FA
:101FB4000E0C9CC0CAF0560C9CC0CAF05D0C9CC0B0
:101FC400CAF0050C9CC0CAF0350C9CC0CAF0340C95
:101FD4009CC0CAF0320C9CC0CAF00A0C20EE01F07E
:101FE4006CD9DF500F0B01E1120020EE01F065D92E
:101FF400DFA80CD020EE02F060D9600EDE5CEA0EA1
:10200400DE5801E322D120EE02F00BD020EE04F0E2
:1020140054D9600EDE5CEA0EDE5801E316D120EEE0
:1020240004F04BD9DE51DE26DF51DD220ED120EE45
:1020340001F043D9DFA8F7D0010E44D984EC13F0A2
:10204400DAD0F1D020EE02F038D9DE50DE1012E002
:1020540020EE02F032D9F40EDE5C010EDE580AE204
:1020640020EE01F02AD9DFB805D0010E2BD984EC7B
:1020740013F0C1D020EE02F020D9590EDE5C020E1E
:10208400DE58DFE320EE01F018D9DFA8CCD0010E32
:1020940019D984EC13F0000120EE02F00ED9640E7D
:1020A400DE5E000EDD5A20EE06F007D9010EBAD02E
:1020B40020EE02F002D9DE50DE10C3E020EE01F083
:1020C400FCD8DFB8B0D0010EFDD884EC13F093D067
:1020D40020EE02F0F2D8DE50DE1012E020EE02F024
:1020E400ECD8FBD80DE220EE01F0E7D8DFB808D039
:1020F400010EE8D884EC13F0ECD8DFD8010E15D02B
:1021040020EE02F0DAD8E80EDE1811E1030EDE1834
:102114000EE120EE01F0D1D8DFA809D0020ED2D80A
:1021240084EC13F0D6D8C9D8020EDF6E17D020EE97
:1021340002F0C3D8DE50DE1011E020EE02F0BDD86C
:10214400E90EDE5C030EDE5809E320EE01F0B5D89B
:10215400DFB804D0050EB6D884EC13F0000163D0C8
:1021640020EE02F0AAD8DE50DE101BE120EE01F0D2
:10217400A4D8DFB816D020EE04F09FD8010EDB50AF
:1021840003E1C90EDE5C0DE320EE06F096D8DE0412
:1021940008E1030E97D884EC13F09BD88ED8030E75
:1021A400DF6E20EE02F089D8DE50DE1026E020EE4D
:1021B40002F083D892D821E220EE01F07ED8DFB875
:1021C4001CD020EE04F079D8010EDB5010E1C90ECA
:1021D400DE5C0DE220EE06F070D8DE0408E1040EA9
:1021E40071D884EC13F075D868D8040E1BD0010E96
:1021F40069D884EC13F0000156D720EE02F05DD8C4
:10220400E80EDE1810E1030EDE180DE120EE01F0F9
:1022140054D8DFA808D0020E55D884EC13F059D84E
:102224004CD8020EDF6E20EE02F047D8DE50DE10EE
:1022340020E020EE01F041D8DFB81BD020EE04F0FE
:102244003CD8000EDE6EDD6E14D020EE01F035D8E1
:10225400DF500F0B010A01E1EAD6030A01E1F2D6CD
:10226400010A01E125D7070A01E132D7010A01E198
:1022740077D7DCC0D9FFDDC0DAFFDF5012E120EEF2
:1022840002F01BD8100EDE180CE1270EDE1809E14F
:1022940020EE01F012D8DFA804D0100E13D884EC7D
:1022A40013F0000120EE01F008D8DFB8120020EE90
:1022B40002F003D8DE6ADD6A000CDC51D926DD5158
:1022C400DA221200D96FDCC0D9FFDDC0DAFFDF509B
:1022D4001200000120EE06F01200E80EDE5C030E90
:1022E400DE581200140EAC6F8C948C969F6B0E0EFD
:1022F4009F65FDD78C849F6B020E9F65FDD78C86EE
:102304009282938A700E3A6EC10E1CD996EC29F013
:1023140013D91AEC26F0700E3A6ED50E13D996EC3A
:1023240029F00AD91AEC26F0720E3A6EBE0E0AD9BA
:1023340096EC29F001D91AEC26F0800E3A6E400E84
:102344003B6E7F0E3C6E3D6A070E3E6E3F6A040E86
:10235400406EFDD896EC29F0296A070E286E3A0ED5
:102364002A6E1AEC26F0720E3A6E440EEBD896ECF6
:1023740029F0E2D81AEC26F0720E3A6E6D0EE2D80D
:1023840096EC29F0D9D81AEC26F0730E3A6ED60ED4
:10239400D9D896EC29F0D0D81AEC26F0070E3A6E6C
:1023A400200ED0D896EC29F0C7D81AEC26F00A0EE5
:1023B4003A6E020EC7D896EC29F0BED81AEC26F075
:1023C4002F0E3A6E010EBED896EC29F0B5D81AEC51
:1023D40026F02F0E3A6E020EB5D896EC29F0ACD842
:1023E4001AEC26F0080E3A6E2F0EACD896EC29F0B3
:1023F400A3D81AEC26F0090E3A6E2F0EA3D896EC49
:1024040029F09AD81AEC26F00B0E3A6E3B6A9FD844
:1024140096EC29F091D81AEC26F00C0E3A6E600E68
:1024240091D896EC29F088D81AEC26F00D0E3A6E65
:10243400010E88D896EC29F07FD81AEC26F00E0EFF
:102444003A6E3B6A84D896EC29F076D81AEC26F0DA
:10245400230E3A6E040E76D896EC29F06DD81AEC59
:1024640026F0110E3A6E030E6DD896EC29F064D85E
:102474001AEC26F0720E3A6E4D0E64D896EC29F0E2
:102484005BD81AEC26F0720E3A6E4A0E5BD896ECC4
:1024940029F052D81AEC26F0710E3A6E270E52D853
:1024A40096EC29F049D81AEC26F0710E3A6E590EC2
:1024B40049D896EC29F040D81AEC26F0710E3A6E01
:1024C400580E40D896EC29F037D81AEC26F0720E44
:1024D4003A6EB70E37D896EC29F02ED81AEC26F0BF
:1024E400720E3A6EBC0E2ED896EC29F025D81AEC52
:1024F40026F0720E3A6EB40E25D896EC29F01CD84C
:102504001AEC26F0100E3A6E030E1CD896EC29F045
:1025140013D81AEC26F09F6B130E9F65FDD793EC2E
:1025240029F010D896EC29F007D81AEC26F08C88FC
:10253400E6EC1CF0CFEF25F0296A020E286E3A0E65
:102544002A6E12003B6E1C6A500E1B6E500C1C6AE5
:10255400500E1B6E500CA49E63AEAED0639E000161
:10256400B16BE2EC27F044EC21F07D6B7E6B120042
:1025740062B3120061C07DF07E6B6151D96EDA6A7C
:10258400DF50B26F6151D96EDA6AD92ADECF7FF09B
:10259400DDCF80F0040E6127B50E040F616302D015
:1025A400B50E616F62916051611901E162836280CD
:1025B400020EB16F020C62AC04D014D0040ED6EF3C
:1025C40027F0D890BA31076EB931066E0650666EA0
:1025D400B9A103D00B0EB16F0B0C030EB16F030C3A
:1025E40062AC02D0642BEAD76282BA51060B066E43
:1025F400076AF00E0610B96F0750BA6FB981010E61
:10260400816FD6D7810513E07FC0D9FF80C0DAFF80
:10261400DECFB9F0DDCFBAF020EE03F068D8066E55
:1026240006C069F06A6B20EE02F061D8826FB9C00F
:1026340066FFB9A1D2D7050EB16F050C62AC05D007
:10264400642B629C050ED6EF27F08207822907E1EE
:1026540053EC29F0B22F01D028D06282A9D74DD8EB
:10266400DF50666E694B6A2B120062AC06D0642B95
:10267400040ED6EC27F0629C12006286080EB16F3D
:10268400080C080EB16F6286080C37D866CFDFFFDE
:10269400694B6A2B820704E0629A060EB16F03D07D
:1026A400628A4AEC29F062881200000ED6EF27F005
:1026B400642B060ED6EF27F00001B15101E158D783
:1026C400010ACBE0030A9EE0010AB8E0070AEDE044
:1026D400010ACBE0030AD5E0010AE7E00F0AD5E0DE
:1026E400020A01E168D7010A01E17AD7E1D77F51F3
:1026F400D9268051DA22DF50120069C0D9FF6AC09E
:10270400DAFF1200DA6F78EC28F0DB6FB4D0D90569
:1027140006E1030EDB19D8A4120084EF25F0020EA3
:10272400D919D8A41200030EDB19D8B434EC28F05C
:102734001200D90510E1DB0503E1010E1FEF2BF0B8
:10274400030EDB1902E1F5EF20F0020EDB19D8A429
:102754001200F5EF20F0020ED91906E1030EDB1981
:10276400D8A4120012EF29F0100ED919D8A412001F
:1027740012EF2AF0030EDB1906E1D905D8A41200E2
:10278400010E20EF17F0D905D8A4120008EF2AF0A3
:10279400030EDB1906E1D905D8A41200010E98EF47
:1027A40017F0D905D8A41200D1EF29F0D90506E114
:1027B400030EDB19D8A412001CEF2AF0020ED9195B
:1027C40006E1030EDB19D8A412004EEF2AF0050E21
:1027D400D919D8A41200030EDB19D8A4120060EF93
:1027E4002AF0D90506E1030EDB19D8A4120026EF5E
:1027F4002AF0020ED91906E1030EDB19D8A412003F
:1028040057EF2AF0050ED919D8A41200030EDB19CC
:1028140002E160EF2AF01200030ED91904E1C36B40
:10282400140EBFEF21F0040ED919D8A41200EB0E38
:102834000CD0030ED91904E1C36BEB0EBFEF21F0EA
:10284400040ED919D8A41200140EC36F000EBFEFE2
:1028540021F0D90506E1030EDB19D8A41200D1EF4B
:102864002AF0020ED919D8A41200030EDB19D8A439
:102874001200E5EF21F0DA5101E15BD7010A01E131
:1028840046D7030A01E176D7010A82E0070AA9E0E4
:10289400010A8CE0030ACDE0010ABEE00F0AD9E088
:1028A4001200C80E0201FC6F020EFD6F9DD8AA0E25
:1028B4008CD8000E8AD8210E88D8290E86D8050E09
:1028C40084D8000E82D8020E80D8010E7ED81A0E4B
:1028D4007CD8050E7AD8030E78D80A0E76D8180E4E
:1028E40074D8120E72D8180E70D8140E6ED8160E34
:1028F4006CD8DA0E6AD8FE0EDF6EFC4BFD2B00019D
:10290400BD510F0B100970D8DF6E020166D898C054
:10291400DFFF63D89BC0DFFF60D89AC0DFFFFC4BAA
:10292400FD2BFB6B71D865D8FB65FCD700019B516F
:102934000BE10201FB6B58D8DF6AFC4BFD2BFB2B30
:10294400050EFB65F8D71FD09B0506E0050E9B1905
:1029540003E0070E9B1907E10201FB6B55D849D828
:10296400FB65FCD710D0040E9B1903E0060E9B19DF
:102974000AE10201FB6B2E0EFB25D96EDA6A010E09
:1029840038D8FB65F8D730D899C0DFFF0201FC4B7B
:10299400FD2BFA6B020EFB6FC80EFB25D96EDA6AAB
:1029A400020EDA22DF50FA27FB2B230EFB65F4D745
:1029B400FA6D1AD8FAC2DFFFC80E0001C36F020E07
:1029C400C46F250EC56F7BEF2AF0DF6EFC4BFD2B29
:1029D400FCC2D9FFFDC2DAFF1200FC4BFD2BFCC286
:1029E400D9FFFDC2DAFF1200FCC2D9FFFDC2DAFF33
:1029F4001200DA22FCC2E1FFFDC2E2FFDFCFE7FFF3
:102A0400FC4BFD2BFB2B050C280EFB25D96EDA6A3B
:102A1400010E12000301005101E1120000050CE156
:102A240076D806E13850361803E10001A26B120093
:102A3400010E0001A26F010C226A43D02250090D3D
:102A44000E0EF324D96E030E5DD8050EF324E16E49
:102A5400030E4FD8120EF324D96E030E53D8090E69
:102A6400F324E16E030E5BD82250090D0C0EF324FF
:102A7400D96E030E47D8030EF324E16E030E39D842
:102A84000A0EF324D96E030E3DD8010EF324E16E31
:102A9400030E2FD8100EF324D96E030E33D8070E6D
:102AA400F324E16E030E3BD82250090D110EF324DA
:102AB400D96E030E27D8080EF324E16E030E2FD827
:102AC400222A1B681C6800511D6E1E6A1B501D269D
:102AD4001C501E2222501F6E206A1D501F5C205065
:102AE400800A216E1E50800A2158A8E310D899D775
:102AF4009FD7F420E26EDECFE6FFDDCFE5FF225064
:102B0400090D1200F420DA6E2250090D120000079C
:102B140079C037F07AC038F0375035181200F420F5
:102B2400E26EDFCFE7FF1200D66B040EC125D46F2F
:102B3400000EC221D56F070ED425D26F000ED52109
:102B4400D36FE9EC2AF00009D8B412000F0EC125A6
:102B5400216E000EC2216CD8ACEC1EF0000901E11C
:102B64001200AA0E0001C56FD3C0C6F0D2C0C7F0D0
:102B7400120EC86FC3C0C9F0CA6BD5C0CBF0D4C0A5
:102B8400CCF0D5C0CDF0D4C0CEF0AA0ECF6FD06BB0
:102B9400C1C0D1F0C50E1B6E1C6A1E6A0D0E1D6EDF
:102BA4006DEC1DF0C60E1B6E1C6A1E6A0C0E1D6EAB
:102BB400D65122EC28F00001D66FBFC01BF0C0C074
:102BC4001CF0C1C01DF0C2C01EF06DEC1DF0BFC0F2
:102BD4001BF0C0C01CF0C1C01DF0C2C01EF0D65115
:102BE40022EC28F00001D66FC40E17D86DEC1DF04E
:102BF400C4C0C5F0C50E1B6E1C6A1E6A010E1D6E94
:102C0400D65122EC28F00001D66FD66DD60E05D829
:102C14006DEC1DF008D893EF24F01B6E1C6A1E6A3D
:102C2400010E1D6E010C35C01BF036C01CF01200E5
:102C3400226E010E236E120C6B516C1105E1CDEC6A
:102C44001FF06C6B320E6B6F78EC28F0020A05E013
:102C540078EC28F0030AD8A41200B451D8B41200B6
:102C640009EC2BF0000961E11200A551010ED8B462
:102C7400000E396E020EB46F6E6BC80E6D6F59EC98
:102C84002BF0000903E0390401E108D0A2EC29F09B
:102C94000009D8B412003950D8A41200010EBCEFB8
:102CA4002AF06D516E1101E0120059EC2BF000096D
:102CB40006E0390404E1060E6AEC25F009D0A2EC22
:102CC40029F0000905E0395003E1050E6AEC25F00E
:102CD400030E0001B46F030C040EB46F56EC2BF01A
:102CE400000906E0010EC36F395098EC21F004D0BE
:102CF400C36B395098EC21F0010E0001A46F010C54
:102D0400A45101E012006E6BC80E6D6F050EB46F16
:102D1400050C6D516E1101E01200000EBCEC2AF09E
:102D240089EC28F00001B46B1200B451010A9DE053
:102D3400030AB7E0010AD0E0070AE2E0010AE9E089
:102D44001200C80E0201FC6F020EFD6F6DD8AA0EB0
:102D5400DF6E63D86ED80051050F66D8DF6E0201AE
:102D64005CD8290EDF6E59D8060EDF6E56D861D8AE
:102D740000295AD8DF6E020150D8090EDF6EFC4BD1
:102D8400FD2BFB6B0FD0010EFB25D96EDA6A010E09
:102D9400DA22FCC2E1FFFDC2E2FFDFCFE7FFFC4B1A
:102DA400FD2BFB2B010100510201FB5DECE3FA6BEF
:102DB400020EFB6F0AD0C80E0201FB25D96EDA6A37
:102DC400020EDA22DF50FA27FB2B01010051000129
:102DD400C66FC76B080EC627000EC7230201FB513E
:102DE4000001C86FC96BC651C85DC951800ACA6F5A
:102DF400C751800ACA59DFE30201FA6D15D8FAC235
:102E0400DFFFC80E0001C36F020EC46F0101005141
:102E1400090F0001C56F7BEF2AF0FC4BFD2BFCC2B0
:102E2400D9FFFDC2DAFF1200FCC2D9FFFDC2DAFFEE
:102E34001200DF6AFC4BFD2B010112000001CC6F74
:102E44006ED02C040CE0020E2C1809E0030E2C1892
:102E540006E0040E2C1803E0050E2C1805E1100EF4
:102E64000001886501D03ED0000E36EC25F0000E3E
:102E7400B6EC25F0100E8865100C09EC2BF0000957
:102E840007E0CCC0BFF041509AEC28F0E3EF22F009
:102E94002F801200010E36EC25F0010EB6EC25F061
:102EA400100E8865100C09EC2BF0000907E0CCC06B
:102EB400BFF0425027EC2BF049EF21F02F82120093
:102EC4002C040CE0020E2C1809E0030E2C1806E06A
:102ED400040E2C1803E0050E2C180BE1100E000153
:102EE400886507D09CC0BFF0CCC0C0F0300E27EF7F
:102EF40023F0020E36EC25F0020EB6EC25F0100E8F
:102F04008865100C09EC2BF0000907E0CCC0BFF079
:102F1400435027EC2BF0C0EF22F02F8412004450D2
:102F240090E0010AB7E0030ACBE012000001CC6F85
:102F34006ED02C040CE0020E2C1809E0030E2C18A1
:102F440006E0040E2C1803E0050E2C1805E1100E03
:102F54000001886501D03ED0000E50EC25F0000E33
:102F6400B6EC25F0100E8865100C09EC2BF0000966
:102F740007E0CCC0BFF041509AEC28F0E3EF22F018
:102F84002F801200010E50EC25F0010EB6EC25F056
:102F9400100E8865100C09EC2BF0000907E0CCC07A
:102FA400BFF0425027EC2BF049EF21F02F821200A2
:102FB4002C040CE0020E2C1809E0030E2C1806E079
:102FC400040E2C1803E0050E2C180BE1100E000162
:102FD400886507D09CC0BFF0CCC0C0F0310E27EF8D
:102FE40023F0020E50EC25F0020EB6EC25F0100E84
:102FF4008865100C09EC2BF0000907E0CCC0BFF089
:10300400435027EC2BF0C0EF22F02F8412004450E1
:1030140090E0010AB7E0030ACBE01200320E2A6402
:1030240001D0320C2B040CE12A500001656F666B51
:10303400676B686B01013A6B3B6B3C6B3D6B0DD06E
:1030440020EE02F02850D9262950DA22DF50000160
:103054006527000E662367236823030E2B1803E0FD
:10306400020E2B1809E1284A292A284A292A46D877
:10307400DF502A6E284A292A0001BF6B13D03ED89C
:103084009C0E01013A25E16E010E3B21E26EDFCF79
:10309400E7FF284A292A3A2B000E3B233C233D23F1
:1030A4000001BF2B2A50BF5DEAE32B0403E0020EAC
:1030B4002B1802E1040E1CD0030E2B18D8A4120006
:1030C400FC0E6525C06FFF0E6621C16FC1C09DF166
:1030D400C0C09EF19C0E1B6E010E1C6E65C01DF0DF
:1030E40025EC1BF0000902E0030E02D0010E00D013
:1030F40001013E6F3F6B406B416B000C28C0D9FF50
:1031040029C0DAFF1200010E2B6EA2C02AF035C0CE
:1031140028F036C029F0E4EC1EF010E23750355C9C
:10312400266E38503658276E2350262624502722E0
:10313400900E265C010E27580EE31200DAEC1EF006
:103144000AE223503524266E24503620276E375049
:10315400265C3850F0D7020EA219D8B41200DFEC66
:103164001EF023C01DF024C01EF020EE03F02150F9
:10317400D9262250DA22DF501F6E25C020F025EC1C
:103184001FF0000926E1120021C0D9FF22C0DAFF96
:103194009FEC1DF0214A222AA8EC1DF002E3356AB7
:1031A400366A3750351812E1385036180FE123507B
:1031B400241008E02B6A2AC0A2F028C035F029C0E8
:1031C40036F00ED0020E0001A26F0AD0010E0001EB
:1031D400A26F2306D8A024062328D6E12428D4E10C
:1031E4002B50D8B4120015EC16F093EF24F008C25B
:1031F400E7F0E76B020109510001E71353D0CD6BEF
:10320400CC0E00EC24F089EF28F0CD6BCC0E00EC52
:1032140024F078EC28F0E80604E0E66B020EE56F93
:1032240002D0E56BE66BE551E8EF25F044D8E7E022
:10323400010AEBE032D0CD6BCC0E00EC24F095EF1C
:103244002AF0CD6BCC0E00EC24F0FE0E0001E16FF1
:10325400E269E751E36FE46BE151E327E251E423D0
:10326400080EE319E411D8A4120020EE06F0DF5191
:10327400D926E051DA22020EDE18D8A41200DF2982
:10328400C36F000EE021C46F080EC56F10EF1CF071
:1032940012D8020AD0E0780AD4E0020ECD6FCC0E28
:1032A40000EF24F0DFC0D9FFE0C0DAFFDF50BEE05A
:1032B400010AEEE0F2D720EE01F0DF51D926E05109
:1032C400DA22DF501200AA0ECA6FCB6BC251040F70
:1032D400CC6F2A0ECD6F030ECE6FCF6BC2C0D0F071
:1032E400C1518009D16FDB6B19D0C151080DBFC02A
:1032F400C3F0C0C0C4F0F350C327F450C423DB515F
:10330400C325D96E000EC421DA6EDBC0C5F0080EE9
:10331400C527C551CA0F55EC1CF0DB2BC369C46922
:10332400C251C56FC66BC351C527C451C623DB51F7
:10333400C76FC86BC551C75DC851800AC96FC651F4
:10334400800AC959D2E3CC0E1B6E1C6AC2C0C3F0FA
:10335400060EC327C351CA0FC46FC4C01DF01E6A32
:1033640010EC28F0C56FC2C0C6F0070EC627C651C0
:10337400CA0FD96EDA6AC5C0DFFFCA0E216E226A8F
:10338400080EC225236E246A000E2422010E256E27
:1033940085EF18F0CC6B070E2924CA6F000E2A2083
:1033A400CB6FE9EC2AF00009D8B412000B0E2924E3
:1033B400216E000E2A201AEC16F0ACEC1EF0000967
:1033C40001E11200AA0E0001BF6FCBC0C0F0CAC059
:1033D400C1F0120EC26F2BC0C3F0C46B2AC0C5F07B
:1033E40029C0C6F02AC0C7F029C0C8F0BF0E1B6EA2
:1033F4001C6A1E6A0A0E1D6E6DEC1DF0C00E1B6E5B
:103404001C6A1E6A090E1D6ECC5122EC28F00001C4
:10341400CC6F27C01BF028C01CF029C01DF02AC0A7
:103424001EF06DEC1DF027C01BF028C01CF029C055
:103434001DF02AC01EF0CC5122EC28F00001CC6F04
:10344400CC6DCC0E0FEC16F06DEC1DF015EC16F0F7
:1034540093EF24F004EEFFF011EE90F0EE6AE550E5
:10346400E150FCE1E250FAE104EE00F010EEFFF06E
:10347400EE6AE550E150FCE1E250FAE103EE00F0BF
:10348400F40EEE6AE806FDE102EE00F0C80EEE6A04
:10349400E806FDE101EE00F0E20EEE6AE806FDE169
:1034A40000EE60F05F0EEE6AE806FDE100EE2CF03F
:1034B400190EEE6AE806FDE18E0EF66E560EF76EF4
:1034C400000EF86E01EEF5F010EE06F00900F5CFEF
:1034D400EEFFE550E150FAE1D00EF66E560EF76EAF
:1034E400000EF86E0900F5CFFCF00900F5CFFDF0F1
:1034F40045904592000EF86E0001EAEF27F0CC6B80
:103504002928CA6F000E2A20CB6FE9EC2AF00009A3
:10351400D8B41200050E2924216E000E2A201AECBC
:1035240016F0ACEC1EF0000901E11200AA0E000135
:10353400BF6FCBC0C0F0CAC0C1F0120EC26FBF0EC5
:103544001B6E1C6A1E6A040E1D6E6DEC1DF0C00E0F
:103554001B6E1C6A1E6A030E1D6ECC5122EC28F0F1
:103564000001CC6F27C01BF028C01CF029C01DF03F
:103574002AC01EF06DEC1DF027C01BF028C01CF003
:1035840029C01DF02AC01EF0CC5122EC28F0000105
:10359400CC6FCC6DCC0E0FEC16F06DEC1DF015EC71
:1035A40016F093EF24F031D009EC2BF00009D8B4D5
:1035B40012009C0E276E010E286E65C029F066C0AD
:1035C4002AF081EC1AF0020E7AEF18F04AEC2BF094
:1035D4000009D8A41200220E9DEC25F001013E6BD7
:1035E4003F6B406B416B120009EC2BF00009D8B41F
:1035F40012009C0EC36F010EC46F65C0C5F07BEC56
:103604002AF0220E9DEC25F0E9D73EC1CDF03FC152
:10361400CEF040C1CFF041C1D0F00001D051D8A4C8
:1036240012000ED0CE51D8A41200CD51D8B412003D
:10363400010ABAE0030ACAE0010AD8A41200D4D7E6
:10364400CF51F0E01200010E266E226A246A46D0A1
:103654001BC0D9FF1CC0DAFFDF50276E1B4A1C2A8F
:103664001D062ED0AA0E271802E1010E21D0266ACB
:1036740031D02750FCE1020E1BD027C023F027C015
:1036840025F01D501E6E1F6A2550206E216A202AC7
:10369400000E21221E502018EAE11F502118E7E1F4
:1036A400030E06D0275023262506255013E1040EC9
:1036B400246E10D023502724DAE1010E226E0AD0A2
:1036C4002450D0E0010AD5E0030AD7E0010AEAE079
:1036D400070AF0E0225004E1265002E01D50B8E150
:1036E400265012003FD003010051D8B412008F803D
:1036F4000001786B030E776F010E8C6F010C77510C
:103704007811D8A41200C9EC28F0210E0301096F26
:10371400020E00018C6F020C77517811D8A41200AC
:1037240007C3EBF0EC6BED6BEE6B030E1AEC04F0DD
:10373400100E0301096F74EC22F0040E8C6F040C5C
:1037440077517811D8A4120003010051DCE18F9065
:1037540000018C6B120077517811D8A412000CEC84
:1037640015F0F2D78C51BFE0010AC9E0030AD8B4BE
:103774001200010AD1E0070AE3E0010AECE01200BA
:1037840053EC2BF01B6E64EC2BF01D6E1E6A1C6A4E
:103794001DA403D0030E1E6E1C2A1DA603D0040E06
:1037A4001E6E1C2A1DAA03D0050E1E6E1C2A1DA007
:1037B40003D0010E1F6E01D01F6A86511F1806E048
:1037C400E9EC2AF0000902E01FC086F01C5007E073
:1037D40013D01E6A16D0020E13D0010E11D01B5046
:1037E400F8E0010AF6E0030AF6E0010AF4E0070A49
:1037F400F2E0010AF2E005D0010E1C6402D0060ECC
:103804001E6E98511E1804E186511F1801E1120022
:103814001EC098F01FC086F087EF29F0AA0ECA6F69
:10382400CB6BC551040FCC6F2A0ECD6F030ECE6F38
:10383400CF6BC5C0D0F0DE6B0ED0DE51C325D96E80
:10384400000EC421DA6EDEC0C6F0070EC627C651CC
:10385400CA0F29D8DE2BC551DE5DEFE3CC0E1B6EFB
:103864001C6AC5C0C6F0060EC627C651CA0FC76F6C
:10387400C7C01DF01E6A10EC28F0C86FC5C0C9F09F
:10388400070EC927C951CA0FD96EDA6AC8C0DFFF4B
:10389400CA0EBF6FC06B080EC525C16FC26B000E88
:1038A400C223AEEF29F0E16EE26ADFCFE7FF120038
:1038B400420E1F6E010E206E2E50D8B4000C2E0442
:1038C400D8B4000C030E2E18D8B4000C060E2E1813
:1038D40001E1000C1FC0D9FF20C0DAFFAA0EDF6E81
:1038E40026D8DF6A24D8560EDF6E21D8300EDF6E5C
:1038F4001ED8130EDF6E1F4A202A1E6A0FD01BC06B
:10390400D9FF1CC0DAFF1FC0E1FF20C0E2FFDFCFF8
:10391400E7FF1B4A1C2A1F4A202A1E2A1D501E5C30
:10392400EEE300018A6B726B640E716F010C1F4A27
:10393400202A1FC0D9FF20C0DAFF1200000185052C
:103944000BE1856B865106E0000E1EEC24F00001AD
:10395400836B02D0010E836F8351D8B4120009EC3B
:103964002BF0000923E11200000E1EEC24F0020EDD
:103974000001836F020C53EC14F0030E0001836FFB
:10398400030CA3EC16F0040E0001836F040C01EC8D
:1039940026F0050E0001836F050C010E1EEC24F0C9
:1039A400060E0001836F060C836B12008351010A1B
:1039B400DBE0030AE0E0010AE4E0070AE8E0010AC8
:1039C400ECE0030AF1E01200720E3A6E730EA4ECFE
:1039D40012F096EC29F09EEC12F01AEC26F0710E1F
:1039E4003A6E2A0EA4EC12F096EC29F09EEC12F03A
:1039F4001AEC26F0710E3A6E5D0EA4EC12F096EC01
:103A040029F09EEC12F01AEC26F0710E3A6E6F0E4D
:103A1400A4EC12F096EC29F09EEC12F01AEC26F0CD
:103A2400710E3A6E4F0EA4EC12F096EC29F09EEC57
:103A340012F01AEC26F0730E3A6EDA0EA4EC12F0C1
:103A440096EC29F09EEC12F01AEC26F0CFEF25F05C
:103A54003FD067EC28F01C6E2ED0AA0E1C1835E15E
:103A6400010E21D01C5002E1020E1DD0916B2DD00D
:103A7400926B756B766B1CC08FF01CC08EF01CC0F3
:103A840090F0030E10D01C508E279007000E752561
:103A9400D96E020E7621DA6E1CC0DFFF754B762BD1
:103AA400905113E1040E916F10D08E511C24DEE16D
:103AB400010E926FDBD79151D0E0010AD3E0030AE3
:103AC400D7E0010AE0E0070AF0E0925101E01200B9
:103AD400A751BFE11200A2C022F035C020F036C0C9
:103AE40021F0020EA21921E112001BC0D9FF1CC053
:103AF400DAFF23D81B4A1C2A29D802E3356A366A1E
:103B04003750351810E1385036180DE11D501E108D
:103B140007E022C0A2F020C035F021C036F0120028
:103B2400020EA26F020C010EA26F1D06D8A01E0683
:103B34001D28DBE11E28D9E11200FF0E3524E16EB9
:103B4400040E3620E26EDFCFE7FF1200354A362A34
:103B5400900E355C010E365812001F6A206A8D8063
:103B64008D828D94216A212A090E2164FCD781500B
:103B7400070B1D6E1E6AD8901D361E361FD88D8009
:103B84008D928D84216A212A090E2164FCD71DD8C7
:103B940015D8D8901D361E368D908D828D84216A5D
:103BA400212A090E2164FCD710D88D801D1E010E18
:103BB4001E1A1DC01BF01EC01CF0010CD8901D362F
:103BC4001E36D8901D361E3612008150070B1F6E0C
:103BD400206A1F501D1220501E121200096E00018F
:103BE40062B112D0075027D805C0DEFF06C0DDFF42
:103BF4006051D96EDA6A09C0DFFF26D807C0DFFF3B
:103C04000ED805E1628103D0075044EC21F007503F
:103C140021D8D8A41200B151FEE1A48E1200040EE2
:103C24006027B50E040F606302D0B50E606F629317
:103C3400605161191200D96EDA6A020EDF6E6051AA
:103C4400D96EDA6AD92A12006051D96EDA6A030E83
:103C5400D926030CD96EDA6A020EDE1812000001AE
:103C640079510301031920E100017A510301041978
:103C74001BE1020E00018C19D8A41200140E0301DA
:103C8400071908E0030E0001786FE80E776F030E42
:103C94008C6F030C0001786B140E776F0301096BB2
:103CA400050E00018C6F050C08D8026E0FD802E3D4
:103CB400796B7A6B0250AFEF24F0FF0E0001792587
:103CC400D96E040E7A21DA6EDF501200794B7A2B0A
:103CD400900E795D010E7A5912001D6A1D50200F55
:103CE40033D81D50070DB50EF324D96E030EF420FE
:103CF400DA6E0800F5CFDFFF1D50290F25D8080024
:103D0400F5CF1CF01D5018D80301DF501C18F00B20
:103D14001C18DF6E1D5010D8DF981D50070DB70E0C
:103D2400F324D96E030EF420DA6EDE6ADD6A1D2AEE
:103D3400080E1D64D3D7080C070DB60EF324D96EF4
:103D4400030EF420DA6E12001B6E1BC0F6FF080E81
:103D5400F76E1200266E36D810E23750355C246EAA
:103D640038503658256E2150242622502522900E94
:103D7400245C010E25580DE3000C1AD80AE22150E8
:103D84003524246E22503620256E3750245C38505A
:103D9400F1D713D821C01DF022C01EF026C01FF099
:103DA40023C020F025EC1FF0000901E1000C010CF8
:103DB4003750355C38503658120035C01BF036C0C9
:103DC4001CF012003550375C365038581200206A07
:103DD4001EAE06D01D6C1E1ED8B01E2A010E206E0B
:103DE4001CAE06D01B6C1C1ED8B01C2A010E201A57
:103DF400216A226A1D501E101BE0010E1F6E04D0A2
:103E0400D8901D361E361F2A1EAEFAD7D8902136FA
:103E140022361D501B5C1E501C5805E31D501B5EB2
:103E24001E501C5A2180D8901E321D321F2EEED7F0
:103E3400205004E0216C221ED8B0222A21C01BF09D
:103E440022C01CF012001D501E1001E1000C140EC3
:103E540003010061000C0051090D010EF324D96E19
:103E6400030EF420DA6E1BC0DEFF1CC0DDFF005120
:103E7400090D050EF324D96E030EF420DA6E1DC06D
:103E8400DEFF1EC0DDFF0051090D070EF324D96EBD
:103E9400030EF420DA6E1FC0DFFF0051090D080E77
:103EA400F324D96E030EF420DA6E20C0DFFF1F0E58
:103EB4001F1801E000F0010C28D009EC2BF00009D8
:103EC40004E0EDEC0FF069EF2AF03382120009EC04
:103ED4002BF0000904E0CFEC0FF069EF2AF03384F3
:103EE400120009EC2BF0000904E01DEC21F069EF4D
:103EF4002AF03288120009EC2BF0000904E01AECD5
:103F040021F069EF2AF0328A12008D51D6E0010ABD
:103F1400DEE0030AE6E0010AEEE0070AECE0010A4B
:103F2400EAE0030AE8E01200AA0EC56FC66B0A0EA7
:103F3400C76F170EC86F050EC96FCA6B070ECB6F1C
:103F4400C3C0D9FFC4C0DAFFDF50CC6F1CD8CD6F1B
:103F54001AD8CE6F18D8CF6F16D8D06F14D8D16FA7
:103F6400C34BC42BC70E1B6E1C6AD10E1D6E1E6A7A
:103F740010EC28F0D26FC50EBF6FC06BC26B0E0E73
:103F8400C16FAEEF29F0C34BC42BC3C0D9FFC4C06B
:103F9400DAFFDF501200000E85B8010E1C6EA31963
:103FA40005E07B6B7C6B1CC0A3F007D0610E7B5DCE
:103FB400EA0E7C5902E27B4B7C2B37EC2BF0000998
:103FC40005E1AAEC28F00009D8B41200A5510DE1CE
:103FD400A351D8A412007C5104E1040E7B5DD8A047
:103FE4001200010EA56FB46F010CA351D8B41200D6
:103FF4007C5104E1040E7B5DD8A01200A56B010E78
:10400400B46F010C0F0EC112896A926A8A6A936AAC
:104014008B6A946A8C6A956A8D6A966A8E6A976AC4
:104024008F6A986A906A996A916A9A6AF18E9690F0
:104034008D8096928D8296948D84938093829384BE
:1040440098908F9098968F9693869282938A95985B
:104054008C9895968C9695948C949788998C92804C
:104064009388958C958A988498928F821200D86F41
:10407400AA0E0001C46FC56B070EC66F2D0EC76F65
:10408400010EC86FD8C0C9F0120ECA6FC351D96EE1
:10409400DA6ADF50CB6FC35116D8CC6FB0C0CDF005
:1040A400C60E1B6E1C6ACD0E1D6E1E6A10EC28F027
:1040B400CE6FC40E02D8AEEF29F0BF6FC06BC26BD7
:1040C4000B0EC16F0B0CD96EDA6AD92ADF501200BD
:1040D4001F6E1E50D8EC28F0206E202805E02050DA
:1040E40017D81F50DF12120058EC29F0206E202838
:1040F400D8B41200205014D81EC0DFFF205008D8B6
:10410400DF6A205005D81F50DF12205017EF2BF024
:10411400020D220EF324D96E010EF420DA6E120081
:10412400020D230EF324D96E010EF420DA6E120070
:10413400B35101E012000A0EB36FAFEC1DF01BC0C7
:10414400E3F01CC0E4F0E56BE3C0E2F0010EE2171B
:10415400E5519EEC1EF0E23BDF500001E219EF0B4B
:10416400E219DF6ED890E433E333E551070DB50E61
:10417400F324DC6F030EF420DD6FDF6B0A0EDE6FB9
:10418400F0EC0FF0E52B080EE565DED7080C0C0EFD
:1041940000018A19D8B412007151721101E01200A1
:1041A4000B0E8A1907E1DAEC08F09DEC22F000010D
:1041B4008A2B12000A0E8A1903E0DD6B090E02D065
:1041C400DD6B050EDC6F470EBF6F010EC06F8AC03A
:1041D400C1F0DCC0C2F065EC19F000018A2B726BEF
:1041E400640E716F640C6F6B706B15D0020E1FEF51
:1041F4002BF009EC2BF0000903E01DD869EF2AF03D
:104204003288120009EC2BF0000903E011D869EFA1
:104214002AF0328A12008D51E9E0020AEAE0010A2A
:10422400F1E0070AEFE0010AEDE0030AEBE0120017
:104234009CC0CAF0020C9CC0CAF0040C1F6E0001A2
:1042440062B115D01D501DEC1EF01BC0DEFF1CC05A
:10425400DDFF6051D96EDA6A1FC0DFFF26EC1EF065
:104264001DC0DFFF11EC1EF004E1628102D01D507D
:1042740009D81D502CEC1EF0D8A41200B151FEE157
:10428400A48E1200D96EDA6A010EDF6E010C0001F1
:10429400C06FAA0EC16FC26B070EC36F230EC46F2B
:1042A400C56B020EC66F030EC76FC86BC0510F0BF0
:1042B400C96FCA6BC30E1B6E1C6ACA0E1D6E1E6AC2
:1042C40010EC28F0CB6FC10E04D8BFC025F085EFE9
:1042D40018F0216E226A246A0B0E236E0B0CD86F21
:1042E400AA0E0001C46FC56B050EC66F2D0EC76FF5
:1042F400020EC86FD851D96EDA6ADF50C96FD8512F
:1043040065EC20F0CA6FC3C0CBF0C60E1B6E1C6AEE
:10431400CB0E1D6E1E6A10EC28F0CC6FC40EBF6F5E
:10432400C06BC26B090EC16FAEEF29F0CE6FAA0E3F
:104334000001C46FC56B030EC66F130EC76F010E69
:10434400C86FC35106E0CE5102E0030E05D0020E41
:1043540003D0CE5103E0010EC96F01D0C96BC60E64
:104364001B6E1C6AC90E1D6E1E6A10EC28F0CA6F03
:10437400C40E71EC24F0AEEF29F0D86FAA0E000140
:10438400C46FC56B090EC66F2D0EC76FC86B010EC7
:10439400C96FCA6B850ECB6FCC6BD8C0CDF0C3C0D0
:1043A400CEF0CF6BC60E1B6E1C6ACF0E1D6E1E6A3E
:1043B40010EC28F0D06FC40EBF6FC06BC26B0D0E33
:1043C400C16FAEEF29F014D009EC2BF0000904E022
:1043D400E1EC0FF069EF2AF0328E120009EC2BF0B9
:1043E400000904E0D8EC0FF069EF2AF033801200E2
:1043F4008D51D8B41200010AD8B41200030AE4E0C3
:10440400010AD8B41200070AE9E0010AD8A4030A91
:104414001200AA0EC36FC46B0D0EC56F1E0EC66FBD
:10442400C769DF0EC86FC969BF0ECA6FCB6BCC6B8F
:10443400CD6BCE6BCF6BD06BD16BD26BC50E1B6EBD
:104444001C6AD20E1D6E1E6A10EC28F0D36FC30EC8
:10445400BF6FC06BC26B110EC16FAEEF29F00001CC
:10446400C56FAA0EC66FC76B070EC86F230EC96F40
:10447400CA6BCB6B050ECC6FC5517F0BCD6FC3518F
:104484007F0BCE6FC4517F0BCF6FC80E1B6E1C6A9F
:10449400CF0E1D6E1E6A10EC28F0D06FC60E5FECB6
:1044A40020F0AEEF29F00001F66F030E8C1919E12C
:1044B400F6510301071902E1F5C009F313D8050EFB
:1044C4008C6F2D0EF61902E1F5C0B0F0F6C0EBF0DA
:1044D400EC6BED6BEE6B010E1AEC04F0030108516A
:1044E4001200000C0001786B640E776F640C0001FD
:1044F400886BE7EC28F084EC2AF09DEC2AF0DDECE4
:104504002AF02BEC2BF0140E416E426E436E446A7B
:10451400956B966B2F6A306A316A326A336A346AF1
:10452400716B726B0C0E8A6F896BAF6BAE69BC6B6F
:10453400BB6BAD6B1200590EC56517D0020EC325B7
:104544001B6E000EC4211C6E580EC3251D6E000E7A
:10455400C4211E6E10EC28F0C66F20EE59F0C35132
:10456400D926C451DA22C6C0DFFFC3C0BFF0C4C01D
:10457400C0F0C26B5A0EC16FAEEF29F00001C06FDC
:10458400AA0EC16FC26B070EC36F230EC46FC56B37
:10459400040EC66F030EC76FC86BC96BC0510F0BF7
:1045A400CA6FC30E1B6E1C6ACA0E1D6E1E6A10EC07
:1045B40028F0CB6FC10E6BEC21F0BFC025F085EF66
:1045C40018F00001C06FAA0EC16FC26B070EC36F53
:1045D400230EC46FC56B010EC66F040EC76FC051A6
:1045E4007F0BC86FC96BCA6BC30E1B6E1C6ACA0EE5
:1045F4001D6E1E6A10EC28F0CB6FC10E6BEC21F01F
:10460400BFC025F085EF18F0206E1E50D8EC28F0BE
:10461400216E2128D8B41200201C1F6E21508AEC70
:1046240020F01F50DF1621508AEC20F0DF50D8A470
:104634001200215092EC20F0DF6A4DEC2BF021188F
:10464400D8A41200FF0E17EF2BF00001C16FAA0EC1
:10465400C26FC36B030EC46F020EC56FBFC0C6F03A
:10466400C1C0C7F0C40E1B6E1C6AC70E1D6E1E6A45
:1046740010EC28F0C86FC20E216E226A246A070E5D
:10468400236EC0C025F085EF18F0276E000162B1DB
:1046940017D0DE0E1B6E010E1C6E27C01DF023C04A
:1046A4001EF024C01FF025C020F066EC23F0DE0EBF
:1046B4001B6E010E1C6E26C01DF0010E20EF21F0B2
:1046C400265044EC21F0010C1FC021F020C022F040
:1046D400D890213622361BC0D9FF1CC0DAFF21C076
:1046E400DEFF22C0DDFF20EE02F008D81EC0DFFF8F
:1046F40020EE03F003D81DC0DFFF12001B50D926A3
:104704001C50DA221200D76FAA0E0001CD6FCE6BB7
:10471400020ECF6F010ED06FD7C0D1F0CF0E1B6E3B
:104724001C6AD10E1D6E1E6A10EC28F0D26FCD0EDD
:1047340002D8CCEF19F0276E286A2A6A060E296E71
:104744002B6A060C116E000162B117D0DE0E056EE5
:10475400010E066E11C007F00DC008F00EC009F07E
:104764000FC00AF0C3EC23F0DE0E056E010E066ED8
:1047740010C007F0010EF0EF1DF0105044EC21F0D2
:10478400010C09C00BF00AC00CF0D8900B360C36A3
:1047940005C0D9FF06C0DAFF0BC0DEFF0CC0DDFF89
:1047A40020EE02F008D808C0DFFF20EE03F003D8A3
:1047B40007C0DFFF12000550D9260650DA22120086
:1047C400246E07D0410E03D0420E01D0430E256E55
:1047D40006D02350F7E0010AF7E0030AF7E0249E2D
:1047E4002550D96EDA6A24501E0DA4EC28F07F0EF1
:1047F4001D6EE9EC1EF01B50DF6E12000001D86F35
:10480400AA0ECE6FCF6B030ED06FD16BD8C0D2F08F
:10481400CDC0D3F0D00E1B6E1C6AD30E1D6E1E6A63
:1048240010EC28F0D46FCE0E276E286A2A6A070E81
:10483400296E2B6ACCEF19F00001C66FAA0EC76F60
:10484400C86B030EC96F290ECA6F010ECB6FC6C0A9
:10485400CCF0C951CA25CB25CC25CE6FCE6DCEC0A8
:10486400CDF0C70E02D87BEF2AF0C36FC46B070EDE
:10487400C56F070C01013A6B12D81B6A1C6A9C0EA7
:104884001B24D96E010E1C20DA6E000EDF6E1B4A4B
:104894001C2A1C5003E1320E1B5CF1E312003B6B3B
:1048A4003C6B3D6B0001656B666B676B686B12005C
:1048B400AA0EC36FC46B030EC56F1F0EC66FC76B02
:1048C400C80EC86FC50E1B6E1C6AC80E1D6E1E6A0C
:1048D40010EC28F0C96FC30E02D8AEEF29F0BF6FF9
:1048E400C06BC26B070EC16F070C16D8DF501D6E6C
:1048F400100E1D6400D01E6A0FD8000E1E24E16E37
:10490400E26A010EE222DFCFE7FF1B4A1C2A1E2ABD
:10491400100E1E64F1D7100C1BC0D9FF1CC0DAFFA7
:104924001200140E03010061140C0051090D030E52
:10493400F324D96E030EF420DA6E1BC0DEFF1CC014
:10494400DDFF0051090D090EF324D96E030EF42086
:10495400DA6E200EDF6E002B200C016E0001FB517D
:10496400FDE0A3B803D001C06DFF09D00AD801C08F
:10497400DFFFAA2B0F0EAA6501D0AA6BFB07A38841
:104984001200A398110EAA25D96EDA6A010EDA2252
:104994001200CE6FAA0E0001C46FC56B030EC66F62
:1049A400150EC76FC3C0C8F0CEC0C9F0C60E1B6ECB
:1049B4001C6AC90E1D6E1E6A10EC28F0CA6FC40E64
:1049C40071EC24F0AEEF29F0AA0EC36FC46B020E93
:1049D400C56F100EC66FC76BC50E1B6E1C6AC70E63
:1049E4001D6E1E6A10EC28F0C86FC30E02D8AEEF1D
:1049F40029F0BF6FC06BC26B060EC16F060C0001BD
:104A04006F51701103E06F07D8A0700771517211D4
:104A140003E07107D8A0720773517411D8B412005F
:104A24007307D8A0740773517411D8A41200000E30
:104A3400CAEF2AF0C36FAA0E0001C46FC56B030E40
:104A4400C66F1C0EC76FC3C0C8F0C96BC60E1B6E01
:104A54001C6AC90E1D6E1E6A10EC28F0CA6FC40EC3
:104A640071EC24F0AEEF29F01C6E07D0410E03D098
:104A7400420E01D0430E1D6E06D01C50F7E0010A11
:104A8400F7E0030AF7E01D50D96EDA6A1E0EDF6004
:104A94001E0C1D50D96EDA6ADF2A12001B6E07D075
:104AA400410E03D0420E01D0430E1C6E06D01B50A3
:104AB400F7E0010AF7E0030AF7E01C50D96EDA6A5E
:104AC400DF50D8B412001C50D96EDA6ADF06120027
:104AD400C36FAA0E0001C46FC56B030EC66F040E2C
:104AE400C76FC86BC3C0C9F0C60E1B6E1C6AC90E63
:104AF4001D6E1E6A10EC28F0CA6FC40E71EC24F00F
:104B0400AEEF29F0040E2C1803E0060E2C180AE16F
:104B140009EC2BF0000904E0EAEC0FF069EF2AF04D
:104B24003386120009EC2BF0000903E0070E6AEF4C
:104B340025F02F8E12000001C36FAA0EC46FC56B3F
:104B4400020EC66F140EC76FC3C0C8F0C60E1B6E2C
:104B54001C6AC80E1D6E1E6A10EC28F0C96FC40EC4
:104B6400FBEC24F0AEEF29F00001C06F07D0410E3A
:104B740003D0420E01D0430EC16F07D00001C051D3
:104B8400F6E0010AF6E0030AF6E0C15102D819EF93
:104B940027F0D96EDA6ADF501200AC51010F2B6E88
:104BA4002BC0F6FF080EF76E0800F5CF3BF0BE0EE3
:104BB4003B6402D0720E01D0730E3A6EA9EC12F06F
:104BC40096EC29F09EEC12F01AEF26F00001D76F54
:104BD400AA0ECD6FCE6B020ECF6F010ED06FD7C071
:104BE400D1F0CF0E1B6E1C6AD10E1D6E1E6A10EC26
:104BF40028F0D26FCD0E9DEC23F0CCEF19F0AA0E65
:104C04000001C66FC76B030EC86F290EC96F040E6F
:104C1400CA6F84C0CBF0C851C925CA25CB25CD6F36
:104C2400CD6DCDC0CCF0C60E37EC24F07BEF2AF06E
:104C34002FEC2BF0E806FCE028C023F0256A6C0E6C
:104C4400246EBE0E266E2A5047EC23F0050EA06F8C
:104C540003D0A05101E1120033EC2BF00009F9E07C
:104C640012003FEC2BF0E806FCE012C00DF00F6AD6
:104C74006C0E0E6EBE0E106E1450A4EC23F0050ED6
:104C8400A06F03D0A05101E1120043EC2BF0000906
:104C9400F9E01200A3BAA4AA04D0A49A85EC27F0E0
:104CA4000CD0A3B8A4A804D0A49894EC26F005D002
:104CB4009DB09EA002D0EFEC2AF004C0DAFF03C03E
:104CC400D9FF459211001C6E07D0410E03D0420E4D
:104CD40001D0430E1D6E06D01B50F7E0010AF7E029
:104CE400030AF7E00F0E1C161D50D96EDA6A1C5029
:104CF4001C24DF6E12001F6A1F501B24D96E000E85
:104D04001C20DA6E280E1F2440EC27F0DE50E61833
:104D140004E11F2A030E1F64EFD7040E1F1801E1DC
:104D2400010C000C100E0001FB6110D0110EAB251C
:104D3400D96EDA6A010EDA22DF506D6EAB2B0F0EDC
:104D4400AB6501D0AB6BFB2B31EF1EF0A39831EFB9
:104D54001EF0AA0EC36FC46B020EC56F2B0EC66F76
:104D6400C76BC50E1B6E1C6AC70E1D6E1E6A10EC47
:104D740028F0C86FC30EFBEC24F0AEEF29F0AA0EA6
:104D8400C36FC46B020EC56F0F0EC66FC76BC50E23
:104D94001B6E1C6AC70E1D6E1E6A10EC28F0C86FCD
:104DA400C30EFBEC24F0AEEF29F0AA0EC36FC46B64
:104DB400020EC56F340EC66FC76BC50E1B6E1C6A20
:104DC400C70E1D6E1E6A10EC28F0C86FC30EFBECF4
:104DD40024F0AEEF29F0AA0EC36FC46B020EC56FA8
:104DE400170EC66FC76BC50E1B6E1C6AC70E1D6EF1
:104DF4001E6A10EC28F0C86FC30EFBEC24F0AEEF73
:104E040029F0AA0EC36FC46B020EC56F0E0EC66FD7
:104E1400C76BC50E1B6E1C6AC70E1D6E1E6A10EC96
:104E240028F0C86FC30EFBEC24F0AEEF29F0BF6F7F
:104E34000001BF51AC19D8B41200BF5103E1F2EC28
:104E440029F004D0AC5102E18AEC29F01F0EBF61B5
:104E54001F0CBFC0ACF0CFEF25F01D6A1D501B2402
:104E6400D96E000E1C20DA6E280E1D2407D8DFCF61
:104E7400E7FF1D2A050E1D64F1D7050CE16EE26AF9
:104E8400010EE2221200395008E1010EBCEC2AF0B6
:104E9400010E396E020EB46F08D03904D8A4120082
:104EA400010EBCEC2AF0396AF5D76E6BC80E6D6F33
:104EB400C80C1B6E0001FB51FDE0A3B803D01BC05E
:104EC4006DFF0AD0C3EC24F01BC0DFFFAA2B0F0E2A
:104ED400AA6501D0AA6BFB07A388120008D0410E73
:104EE40003D0420E01D0430E0001C06F06D04450DF
:104EF400F6E0010AF6E0030AF6E00001C051CBEC4B
:104F040025F019EF27F06BA202D06B986B88000E86
:104F14000001A82508D86ECFDFFFA82BA82901E13E
:104F2400A86BA72B1200D96EDA6A040EDA221200DB
:104F3400A39AA398480E7C6E900E6B6E260E6C6E30
:104F4400210E6F6E7D6AAA6BAB6B100EFB6FA86BA4
:104F5400A96BA76BA38A12001D6A1D501B24D96E6E
:104F6400000E1C20DA6E2E0E1D24E16EE26A010E84
:104F7400E222DFCFE7FF1D2A050E1D64EED7050CE4
:104F84001D6A1BC0D9FF1CC0DAFF340E1D24E16E5C
:104F9400E26A010EE222DFCFE7FF1B4A1C2A1D2A28
:104FA400050E1D64EED7050C056E6284000108D859
:104FB40005E006D8D96EDA6A05C0DFFFB16B1200CE
:104FC40020EE03F07D51D9267E51DA22DF50120003
:104FD400F6EC28F0F28EF28C6FEC1EF079EC22F0F5
:104FE40074EC11F0A5EC2AF03AEC0CF09AEC20F0F9
:104FF4001EEC16F0F9D7100E3A6E3B6A0BD8BAECD9
:1050040029F002D833EF26F0136A020E126E3A0E1C
:10501400146E1200066A500E056E500C1F6A08D0FA
:105024001BC0D9FF1CC0DAFFDF501F261B4A1C2AF5
:105034001B501D5C1C501E58F3E21F6C1F501200C5
:105044001F6E0BD01BC0D9FF1CC0DAFFDF501F2618
:105054001B4A1C2A1D06D8A01E061D501E10F2E174
:105064001F5012002C50D8B41200060E2C18D8B4BD
:10507400120009EC2BF0000904E0D2EC0FF069EF08
:105084002AF034861200EA6F380E0001E06FEAC09D
:10509400E1F0DFC0E2F0E00E02D810EF1CF0C36FC5
:1050A400C46B030EC56F030C1B6E030E1B6404D08C
:1050B400090E1B6001D0090C1B5000019A19D8B4C9
:1050C40012001BC09AF087EF29F0A751FEE0A39AC3
:1050D400000EA92595EC27F0DF501B6EA92BA929FA
:1050E40001E1A96BA707A38A1B501200240E00013B
:1050F400881901E1010C100E886504D01C0E88612A
:1051040001D0020C1C0E881901E1030C000C0001F3
:10511400A5510BE0395003E0D96B810E02D0D96B55
:10512400820ED86FD85185EF23F0800E85EF23F0DF
:10513400236E23507F0D06D81E0E1D6EE9EC1EF063
:105144001B501200F3CF1BF0F4CF1CF01E6A1200A8
:10515400010E1B6E2C040AE0020E2C1807E0030E4D
:105164002C1804E0050E2C1801E01B6A1B501200D9
:10517400B50E0001616F606F62836291646B800E93
:10518400646E280E636E656EA49EA38E280C01C304
:1051940079F002C37AF05FEC1EF01C6E68EC1EF02E
:1051A40002E3796B7A6B1C505BEF27F01C6E1D6A6F
:1051B4001D5092EC20F01C50DE1802E11D5012002C
:1051C4001D2A020E1D64F4D7FF0C936B010E976F1A
:1051D4002C6A2D6A2E6A9C6BE7EC29F000018D6B1A
:1051E400A16B8B6BA66B120013EC2BF004EC20F07C
:1051F4008DEC2AF0BAEC28F09AEC27F004EC29F0B4
:10520400C6EF29F0100ED56EF80ED76E300ED66E9E
:10521400F80EF86F300EF76FF294F28A5EEF2BF00F
:105224001C0E8819D8A4120009EC2BF0000904E024
:10523400DEEC0FF069EF2AF0318C120060EC2BF0F9
:10524400E80605E143C0DFF0020E45EF28F041C057
:10525400DFF0000E45EF28F001EC25F065EC29F0B5
:10526400ADEC2AF06AEC2BF03BEC2BF00EEC2BF0BF
:105274003CEF29F06B516C1103E06B07D8A06C076D
:105284006D516E11D8B412006D07D8A06E071200CC
:1052940008D8B22F03D0040EB16F040C010EB16F05
:1052A400010C040E7F27000E8023000C1B6A1B5088
:1052B4008AEC20F0DF5002E11B5012001B2A020E80
:1052C4001B64F5D7FF0CFC2903E1FD29D8B41200B7
:1052D400FC51FD11D8B41200FC07D8A0FD07120040
:1052E4000001EA6FEAC0E0F0E16BDFC0E2F0E00E3B
:1052F40051EC28F010EF1CF01B6E1B5000019B19A1
:10530400D8B412001BC09BF000D0010E856F010CB5
:1053140008D8A4EC12F096EC29F09EEC12F01AEFE7
:1053240026F0100E3A6E0B0C1D6A1E6A03D000F0B4
:105334001D4A1E2A1B501D5C1C501E58F8E3120007
:105344001B6A93A707D0020E941902E0945102E15C
:10535400010E1B6E1B501200BFC021F0C0C022F012
:10536400C1C023F0C2C024F0010E256E85EF18F0F1
:10537400076A086A03D000F0074A082A0550075C48
:1053840006500858F8E31200100ECD6ECF689C0E3C
:10539400CE6EFA69F96F9E909D805CEF2BF0AC5154
:1053A400D8B41200AC07CFEC25F0AC51D8B4F2EC71
:1053B40029F01200BFC021F0C0C022F0C1C023F008
:1053C400246A020E256E85EF18F00101216B1C6A18
:1053D4001C5044EC2AF01C2A020E1C64F9D7020C5F
:1053E400100E3A6E3B6AA9EC12F096EC29F09EEC92
:1053F40012F01AEF26F093EC29F03B6E0CEC28F037
:10540400BAEC29F006EC28F033EF26F0AC5102E1B7
:105414008AEC29F01E0EAC611E0CAC2BCFEF25F0EC
:1054240009EC2BF0000904E0DBEC0FF069EF2AF043
:10543400318E120009EC2BF0000904E0E4EC0FF0CB
:1054440069EF2AF03282120009EC2BF0000904E023
:10545400E7EC0FF069EF2AF0328012002AEC1DF01D
:105464009251D8B41200F9EC08F00001926B1200CA
:105474001B6E1B500001BD1901E112001BC0BDF0E1
:1054840087EF29F01B6E1B5092EC20F0DF6A1B5053
:105494008AEC20F0DF6A000C09EC2BF0000903E031
:1054A400030E6AEF25F02F8C120009EC2BF0000993
:1054B40003E0010E6AEF25F02F8A120009EC2BF0AD
:1054C400000903E0000E6AEF25F02F881200CB6F6D
:1054D400CAC0BFF0010E0001C06FCB5127EF23F00B
:1054E400010E1B6E835103E1855101E11B6A1B50C0
:1054F4001200C3C0BFF0C4C0C0F0C5C0C1F0C26BCD
:10550400AEEF29F0926B916B02D067EC28F0A751B3
:10551400FCE13CEF24F0D08EA58AA5889F80A59C51
:10552400A59EF194120004EC2BF0E806D8B493A7DE
:10553400120045EF27F0356A366A376A386AA26B7B
:105544000301006B12006C6B0A0E6B6F396AA36B5C
:105554006D6B6E6B120077517811D8B41200770717
:10556400D8A078071200850501E1000C8351D8A466
:10557400000C010C2B6E2B5002E18AEF29F0F2EFA4
:1055840029F0F294F8C0D7FFF7C0D6FF66EF2BF0EE
:10559400156E155002E1FDEF29F0FDEF27F08D5156
:1055A40002E087EF1FF095EF2AF01FC01BF020C028
:1055B4001CF077EF24F0E3EC2AF0856B836B986B97
:1055C400120000019B6BBD69996B866B1200030E80
:1055D4000001A619D8B4010C000C9E90FAC0CFFFAC
:1055E400F9C0CEFF1200010EFD6FF40EFC6FF40C37
:1055F4001B6E1BC084F000EF2BF000D0010E0001E5
:10560400856F010C0001A505D8B4010C000C000144
:105614008C5101E1010C000C9F2BA051D8A4A007D0
:105624001200020ED36E9B6A12001B6E1BC021F186
:105634001200000196BD010C000C1B6E1BC087F00C
:1056440012001B6E1BC099F012001B6ED8901B3009
:10565400120001013A6B51EF24F0000162B1010C18
:10566400000CB15101E1010C000C2C50D8B4010C18
:10567400000CB351D8A4B3071200000162B1010CAD
:10568400000CB15101E1010C000CAA00022500D963
:105694000301095112000101215112000001A46B00
:1056A400120000019751120095BB010C000C93519C
:1056B400080B1200CD801200D58E12003950120052
:1056C4000CEF15F0935112002EEF29F0FFFF12009A
:0856D400120012001200120086
:067FF80020F4C4FFF8F3C1
:00000001FF
